S0190000322E2041746D656761313238415F4543472E7372656332
S113000098C30000B4C30000B2C30000B0C3000032
S1130010AEC30000ACC30000AAC30000A8C3000024
S1130020A6C30000A4C30000A2C30000A0C3000034
S11300309EC300009CC300009AC3000098C3000044
S11300400C94830894C3000092C3000090C3000082
S11300508EC300008CC300008AC3000088C3000064
S113006086C3000084C3000082C3000080C3000074
S11300707EC300007CC300007AC3000078C3000084
S113008076C3000074C3000072C300006D0C730CCF
S1130090730C730C730C730C730C730C730C730C64
S11300A0730C730C730C730C730C730C730C730C54
S11300B0730C730C730C730C730C730C730C730C44
S11300C0730C730C730C440CBC0BDE0B730C550CCF
S11300D0730C730C730C730C730C730C730C730C24
S11300E0730C730C730C730C620C730C090C730C8F
S11300F0730C250C730C730C730C730C730C730C52
S1130100730C730C730C330CBC0BC60B730C550CB7
S1130110730C730C730C730C730C730C730C730CE3
S1130120730C730C730C730C620C730CFB0B730C5D
S1130130730C170C6E616E00696E660000407A10D5
S1130140F35A00A0724E18090010A5D4E80000E884
S11301507648170000E40B54020000CA9A3B0000E2
S113016000E1F505000080969800000040420F0071
S11301700000A08601000000102700000000E80332
S1130180000000006400000000000A0000000000FD
S11301900100000000002C76D888DC674F0823DFBC
S11301A0C1DFAE59E1B1B796E5E3E453C63AE6518F
S11301B0997696E8E6C28426EB898C9B62ED407CB6
S11301C06FFCEFBC9C9F40F2BAA56FA5F490055A52
S11301D02AF75C936B6CF9676DC11BFCE0E40D4777
S11301E0FEF520E6B500D0ED902E0300943577059A
S11301F00080841E080000204E0A000000C80C3352
S11302003333330F986E12831141EF8D2114893BE0
S1130210E65516CFFEE6DB18D1844B381BF77C1D60
S1130220901DA4BBE424203284725E228100C9F1B3
S113023024ECA1E53D2700000000003E5B4F5B3E3F
S11302403E6B4F6B3E1C3E7C3E1C183C7E3C181C97
S1130250577D571C1C5E7F5E1C00183C1800FFE78E
S1130260C3E7FF0018241800FFE7DBE7FF30483A34
S1130270060E2629792926407F050507407F052596
S11302803F5A3CE73C5A7F3E1C1C08081C1C3E7F1E
S113029014227F22145F5F005F5F06097F017F00E5
S11302A06689956A606060606094A2FFA294080405
S11302B07E040810207E201008082A1C08081C2A26
S11302C008081E101010100C1E0C1E0C30383E387E
S11302D030060E3E0E06000000000000005F000025
S11302E00007000700147F147F14242A7F2A122396
S11302F01308646236495620500008070300001CA6
S11303002241000041221C002A1C7F1C2A08083EAE
S113031008080080703000080808080800006060C1
S11303200020100804023E5149453E00427F40002F
S113033072494949462141494D331814127F102707
S1130340454545393C4A4949314121110907364956
S1130350494936464949291E00001400000040342A
S1130360000000081422411414141414004122142F
S11303700802015909063E415D594E7C1211127C56
S11303807F494949363E414141227F4141413E7FB7
S1130390494949417F090909013E414151737F0897
S11303A008087F00417F41002040413F017F08143D
S11303B022417F404040407F021C027F7F0408109E
S11303C07F3E4141413E7F090909063E4151215E7C
S11303D07F09192946264949493203017F01033F10
S11303E04040403F1F2040201F3F4038403F63149F
S11303F008146303047804036159494D43007F41A1
S113040041410204081020004141417F04020102DD
S11304100440404040400003070800205454784002
S11304207F284444383844444428384444287F3896
S11304305454541800087E090218A4A49C787F0818
S113044004047800447D40002040403D007F102893
S1130450440000417F40007C047804787C08040454
S1130460783844444438FC1824241818242418FCEC
S11304707C08040408485454542404043F44243C91
S11304804040207C1C2040201C3C4030403C442800
S11304901028444C9090907C4464544C440008369A
S11304A04100000077000000413608000201020408
S11304B0023C2623263C1EA1A161123A4040207A28
S11304C03854545559215555794122545478422170
S11304D05554784020545579400C1E5272123955A7
S11304E055555939545454593955545458000045A4
S11304F07C410002457D420001457C407D12111281
S11305007DF0282528F07C545545002054547C5413
S11305107C0A097F4932494949323A4444443A32CF
S11305204A4848303A4141217A3A42402078009D75
S1130530A0A07D3D4242423D3D4040403D3C24FF21
S11305402424487E4943662B2FFC2F2BFF0929F6D0
S113055020C0887E090320545479410000447D4121
S11305603048484A32384040227A007A0A0A727D7A
S11305700D19317D2629292F282629292926304895
S11305804D4020380808080808080808382F10C803
S1130590ACBA2F102834FA00007B000008142A1487
S11305A02222142A1408AA005500AAAA55AA55AA58
S11305B0000000FF00101010FF00141414FF0010BE
S11305C010FF00FF1010F010F0141414FC001414A9
S11305D0F700FF0000FF00FF1414F404FC141417C8
S11305E0101F10101F101F1414141F00101010F0EF
S11305F0000000001F101010101F10101010F01039
S1130600000000FF101010101010101010FF100048
S11306100000FF140000FF00FF00001F101700007F
S1130620FC04F414141710171414F404F40000FF59
S113063000F714141414141414F700F714141417F2
S11306401410101F101F141414F4141010F010F0D0
S113065000001F101F0000001F14000000FC140005
S113066000F010F01010FF10FF141414FF141010F9
S1130670101F00000000F010FFFFFFFFFFF0F0F07C
S1130680F0F0FFFFFF0000000000FFFF0F0F0F0F4F
S11306900F3844443844FC4A4A4A347E020206066F
S11306A0027E027E0263554941633844443C04405F
S11306B07E201E2006027E020299A5E7A5991C2A27
S11306C0492A1C4C7201724C304A4D4D30304878E6
S11306D04830BC625A463D3E494949007E01010109
S11306E07E2A2A2A2A2A44445F444440514A4440E8
S11306F040444A51400000FF0103E080FF0000082D
S1130700086B6B083612362436060F090F060000F4
S113071018180000001010003040FF0101001F01F4
S1130720011E00191D1712003C3C3C3C0000000057
S1130730000011241FBECFEFD0E1DEBFCDBF11E01A
S1130740A0E0B1E0E0E5F8E200E00BBF02C00790F2
S11307500D92A438B107D9F722E0A4E8B1E001C0B2
S11307601D92A234B207E1F7F3D50C94261448CCB9
S113077080E487B984E886B90895882331F08064D9
S113078087B985E38A95F1F7000086B1806486B95C
S1130790349BFECF86B1806186B984B195B108954A
S11307A0CF92DF92EF92FF920F931F93CF93DF9339
S11307B0CDB7DEB7C455D1090FB6F894DEBF0FBE6E
S11307C0CDBF6B017C0184E5E2E1F1E0DE0111962D
S11307D001900D928A95E1F784E190E01AC09C01A2
S11307E021503109F901EE0FFF1FEE0FFF1FEE56E6
S11307F0FE4F4081518162817381880F991F880F58
S1130800991FFC01EE56FE4F40835183628373832C
S1130810C901181619061CF3C0929201D0929301D3
S1130820E0929401F092950100E010E0C12CD12CEB
S1130830760122C09801220F331F220F331FF901C2
S1130840EE56FE4F6081718182819381E1E0F0E098
S1130850EC0FFD1FE20FF31F208131814281538190
S11308600E94140E9B01AC01C701B6010E948A0CC0
S11308706B017C010F5F1F4F05311105DCF2C701CD
S1130880B601CC5ADF4F0FB6F894DEBF0FBECDBF12
S1130890DF91CF911F910F91FF90EF90DF90CF9058
S11308A00895CF92DF92EF92FF926B017C01209129
S11308B08E0130918F0140919001509191010E94DD
S11308C0890C24EC31ED4BE75AE30E94EE0CC09204
S11308D08E01D0928F01E0929001F0929101FF90ED
S11308E0EF90DF90CF9008958F929F92AF92BF9236
S11308F0EF92FF920F931F93CF93DF934B015C0111
S113090007EE11E0F801C081D181CE01880F991F53
S1130910880F991F9C0129513E4F7901F9012681C5
S1130920378140855185F801628173818481958185
S1130930F0D7A5019401EED7F80162837383848311
S11309409583F70186829782A086B1862196C77027
S1130950DD27F801D183C08320E030E040E05EE38E
S11309600E94140EDF91CF911F910F91FF90EF9091
S1130970BF90AF909F908F90089520918C013091FB
S11309808D012F5F3F4F30938D0120938C012530D3
S1130990310550F010928D0110928C010E94560D79
S11309A070938B0160938A0180918A0190918B01ED
S11309B0089520E034E244EF59E40E94100E181622
S11309C0E4F48091880190918901813D9105A8F01A
S11309D060918601709187018CEF93EF0E9433122E
S11309E070938501609384011092890110928801AB
S11309F0109287011092860112C080918801909113
S1130A0089010196909389018093880180918601E0
S1130A10909187010196909387018093860180913C
S1130A2084019091850108958FEF87BB88B380611D
S1130A3088BB87B3806287BB089587B38E6287BB08
S1130A4080E58DB98EB181608EB988B3826088BB30
S1130A5008958FB9779BFECF089598B39E7D98BB78
S1130A6000C000C00000F5DF88B3816088BB089532
S1130A7098B3906298BB000098B39E7F98BBE9DF5F
S1130A8088B3816088BB0895DF92EF92FF920F9341
S1130A901F93CF93DF93E82ED92ED62F172F042F31
S1130AA0F52EC22F8AE2D9DF8D2DE2DF8E2DE0DF15
S1130AB08F2DDEDF802FDCDF8BE2CFDF812FD8DFCD
S1130AC08D2FD6DF8C2FD4DF8C2FD2DF8CE2C5DFC5
S1130AD0DF91CF911F910F91FF90EF90DF900895D8
S1130AE088B3806188BB8FE493EC0197F1F700C071
S1130AF0000088B38F7E88BB8FE493EC0197F1F7F5
S1130B0000C0000088B3806188BB8FE493EC019738
S1130B10F1F700C00000089587DF8FDFE1DF81E097
S1130B209CDF2FE38DE093E0215080409040E1F77B
S1130B3000C000008BEC91DF89E39ADF8CE298DF40
S1130B4080E096DF84E394DF82E092DF8FEC85DF40
S1130B5080E08EDF81EC8CDF80E38ADF88EE7DDF4E
S1130B6085E886DF80E084DF88E782DF8AEE75DF50
S1130B7080E07EDF80E07CDF8DEE6FDF84E678DF6F
S1130B8083E076DF82E174DF81E872DF87EF65DF7F
S1130B9080E26EDF80EC61DF83E26ADF81EC5DDF9F
S1130BA080E166DF85EC59DF8EE362DF88E260DF97
S1130BB087EC53DF86E85CDF86E34FDF88E458DFA9
S1130BC08AE34BDF85E554DF81EB47DF80E050DFCC
S1130BD088E14EDF86EB41DF88E04ADF82E848DFC8
S1130BE087E246DF82EF39DF80E042DF86E235DFED
S1130BF081E03EDF80EE31DF8FE03ADF81E338DFF2
S1130C008BE236DF8CE034DF8EE032DF88E030DFE9
S1130C108EE42EDF81EF2CDF87E32ADF87E028DFF5
S1130C2080E126DF83E024DF8EE022DF89E020DF1D
S1130C3080E01EDF81EE11DF80E01ADF8EE018DF36
S1130C4084E116DF83E014DF81E112DF87E010DF47
S1130C5081E30EDF81EC0CDF88E40ADF88E008DF43
S1130C608FE006DF8CE004DF81E302DF86E300DF50
S1130C708FE0FEDE81E1F1DE8FE295E70197F1F787
S1130C8000C0000089E2E9CE0895CF93C82F892FD0
S1130C90EFDE8C2FEDDECF910895EF92FF920F934C
S1130CA01F93CF93DF938C012091000130910101B8
S1130CB040910201509103012150310941505109E1
S1130CC060E070E080E090E0DFDEE12CF12C10C009
S1130CD0C801DBDF219602C0C0E0D0E080910001B2
S1130CE090910101C817D90798F38FEFE81AF80A11
S1130CF08091020190910301E816F90668F3DF91EF
S1130D00CF911F910F91FF90EF900895CF93DF93B0
S1130D1020910201309103018217930788F42091F6
S1130D200001309101016217730750F4EA019B013D
S1130D302F5F3F4FAC014F5F5F4FA6DECE01A5DFB3
S1130D40DF91CF910895CF92DF92EF92FF920F93AC
S1130D501F93CF93DF936A017901209102013091AF
S1130D6003018217930708F045C0209100013091D8
S1130D7001016217730708F03DC09C01240F351F61
S1130D802150310940910201509103012417350784
S1130D9030F0C0900201D0900301C81AD90A9B0117
S1130DA02E0D3F1D21503109409100015091010148
S1130DB02417350730F0E0900001F0900101E61AA5
S1130DC0F70A9701260F371FA601480F591F215014
S1130DD031094150510958DE0AC0C80156DF219734
S1130DE001C0E6012097C9F781E0E81AF108E1148F
S1130DF0F104B9F7DF91CF911F910F91FF90EF901C
S1130E00DF90CF900895CF93C82F86E326DE8C2FF2
S1130E1083708130A9F028F0823009F1833071F1B8
S1130E203BC088E425DE80EF90E09093030180933B
S1130E30020180E491E090930101809300012CC0B1
S1130E4088E216DE80E491E090930301809302012E
S1130E5080EF90E090930101809300011DC088E829
S1130E6007DE80EF90E0909303018093020180E419
S1130E7091E090930101809300010EC088EEF8DDAB
S1130E8080E491E0909303018093020180EF90E06D
S1130E909093010180930001CF9108953F924F9266
S1130EA05F926F927F928F929F92AF92BF92CF92F6
S1130EB0DF92EF92FF920F931F93CF93DF93E09112
S1130EC00201F09103018E179F0708F09CC0E09186
S1130ED00001F09101016E177F0708F094C0CE2C39
S1130EE0D12CF601EE0FFF1FEC0DFD1DEE0FFF1FC1
S1130EF0E80FF91F31970AF486C0F601EE0FFF1FC1
S1130F00EE0FFF1FEE0FFF1FE60FF71F31970AF4D6
S1130F107AC028015901342E3B014C01F12C6FC0D9
S1130F2015E0F11689F0832D90E0FC01EE0FFF1F10
S1130F30EE0FFF1FE80FF91FEF0DF11DF7FCFA95F7
S1130F40EA5CFD4FC49101C0C0E0D0E054C0C0FFD2
S1130F5027C021E0E2120DC0A501B3016D0F711D80
S1130F60D7FD7A95C4018F0D911DF7FC9A95CEDEBD
S1130F7040C04E2D50E01D2F96011203B001139F67
S1130F80700D1124660D771D1F2D1203C001139FD0
S1130F90900D112485019A01880D991DD4DE29C074
S1130FA0A414B50431F121E0E2120DC0A201B30191
S1130FB06D0F711DD7FD7A95C4018F0D911DF7FC3E
S1130FC09A95A4DE16C04E2D50E01D2F96011203F3
S1130FD0B001139F700D1124660D771D1F2D120390
S1130FE0C001139F900D112482019A01880D991D4F
S1130FF0AADEC695DF5FD8300CF4A9CFF39425E0C0
S11310002F150CF08DCFDF91CF911F910F91FF9091
S1131010EF90DF90CF90BF90AF909F908F907F9094
S11310206F905F904F903F90089590933802809313
S11310303702709326026093250208959093360236
S113104080933502709324026093230208958930BB
S113105028F4811101C081E0809339020895EF9250
S11310600F931F938A30C1F48091390290E0880F66
S1131070991F880F991F880F991F2091250230917D
S11310802602820F931F90932602809325021092CA
S11310903802109237022AC08D3041F1482FE09077
S11310A039020091230210912402209135023091DB
S11310B03602609125027091260280913702909148
S11310C03802ECDE8091390290E09C01220F331F3C
S11310D0820F931F880F991F209137023091380295
S11310E0820F931F90933802809337021F910F91C0
S11310F0EF900895B4CF089581E087BF87E083BF60
S113110081EF82BF08951F920F920FB60F921124A0
S11311108F9381E08093E60181EF82BF8F910F90DE
S11311200FBE0F901F90189568E270E088E290E07F
S11311307CDF60E070E080EE9FEF80DF83E087DF9C
S113114086E691E09F938F930E94B51382E07FDF40
S11311506AE570E088E290E068DF82E791E09F93BF
S11311608F930E94B5130F900F900F900F900895D6
S11311702F923F924F925F926F927F928F929F92A3
S1131180AF92BF92CF92DF92EF92FF920F931F9391
S1131190CF93DF93CDB7DEB72A970FB6F894DEBFAF
S11311A00FBECDBF6C017B011801BA01681B790B1E
S11311B0C9018E199F099E838D838B01772324F4A3
S11311C000271127061B170B8D819E8199231CF480
S11311D0919581959109801791070CF08C0180E01D
S11311E090E090D42B013C01B80180E090E08AD4D7
S11311F04B015C019B01AC01C301B201EFD36983D4
S11312007A838B839C832D813E81B90180E090E0B9
S113121079D4A5019401E2D36D837E838F8398876B
S1131220B60180E090E06ED44B015C01B70180E030
S113123090E068D46B017C011A86198625C0C70129
S1131240B60134D42B013C01C501B4012FD4DC0117
S1131250CB01A101B2015ADD29813A814B815C8124
S1131260C501B40157D34B015C012D813E814F81EF
S11312705885C701B6014ED36B017C0129853A8597
S11312802F5F3F4F3A87298789859A858017910771
S1131290B0F22A960FB6F894DEBF0FBECDBFDF9131
S11312A0CF911F910F91FF90EF90DF90CF90BF905F
S11312B0AF909F908F907F906F905F904F903F90F2
S11312C02F9008950F931F93CF93DF9380E090E0C6
S11312D0E4DC0FEF1FEF2BEE30E045E050E060E080
S11312E070E085E090E044DF2BEE30E040E451E034
S11312F06BEE70E085E090E03BDFC1E0D0E01BC026
S11313008EE18C9FB0018D9F700D11240FEF1FEFA4
S11313109B014AE050E080E090E02ADF28E22C9F25
S1131320C0012D9F900D112420EF30E0AC0166EE3A
S113133070E01EDF2196C830D10514F365E070E03B
S11313408AE590E072DEDF91CF911F910F910895AD
S113135084E091E090933F0280933E02CDDE08DA70
S113136040E052EC61E070E080E0B1D0D5DB80E099
S113137090E093DC81E047DDD7DE2FEF83ED90E34F
S1131380215080409040E1F700C000009BDF78943A
S11313908091E6018823E1F380E0EFD9CDE0D2E04B
S11313A099838883BC0180E090E0ACD3F9D96A8347
S11313B07B838C839D8375DA6E837F83888799878B
S11313C075D39B01AC010E9424129CD36A877B874E
S11313D08C879D8789DA6E877F87888B998B6A8152
S11313E07B818C819D81C9DA9B8B8A8B6E857F85FD
S11313F088899989DEDA9D8B8C8B8B898F938A8976
S11314008F9389818F9388818F938CE791E09F9349
S11314108F931F926AD11092E6018DB79EB70796FB
S11314200FB6F8949EBF0FBE8DBFB2CF0F931F931C
S1131430CF93C82FDB01CA0180569940A109B10995
S1131440813A984BA140B10580F580E090E0DC0141
S1131450841B950BA60BB70B880F991FAA1FBB1FE4
S1131460880F991FAA1FBB1F8C019D01000F111F1C
S1131470221F331FD901C8019C5DAB40BF4F440FED
S1131480551F661F771F440F551F661F771F9A014C
S1131490AB01220F331F441F551F220F331F441F5C
S11314A0551FBC01CD01F3D702C027E630E0C111BE
S11314B004C029B93093900006C0C13021F42093B0
S11314C0990030939800CF911F910F910895811145
S11314D009C088E18AB986E0809395001BB880E052
S11314E0A5CF0895813051F488E180939A0086E075
S11314F080939D0010929B0081E098CF0895811104
S113150004C05D9BFECF6CB90895813031F48091A5
S11315109B0085FFFCCF60939C0008951F93CF939D
S1131520DF93182FEB0103C02196812FE8DF688138
S11315306111FACFDF91CF911F9108954F925F927D
S11315406F927F929F92AF92BF92CF92DF92EF926F
S1131550FF920F931F93CF93DF93CDB7DEB72A97F4
S11315600FB6F894DEBF0FBECDBFB82E962E69011C
S11315707A0182E0681321C01DC0202F30E0215081
S1131580310981E090E002C0880F991F2A95E2F7A3
S1131590092E000CAA0BBB0B8C219D21AE21BF216F
S11315A061E0892B8A2B8B2B09F460E0605D8B2D25
S11315B0A6DF01500111E1CF49C0232B242B252B99
S11315C069F560E38B2D9BDF41C0C114D104E104B4
S11315D0F104C9F0AC2C492C512C612C712CC7019D
S11315E0B601A301920153D7C22ED32EE42EF52EB9
S11315F0E1E0F0E0EC0FFD1FE10FF11D929EA01859
S11316001124A08209C00B30F8F4E1E0F0E0EC0F03
S1131610FD1FE10FF11D10821F5F01C010E01017C4
S1131620A0F212C0E12FF0E0319781E090E08C0F3E
S11316309D1FE80FF91F60816A3010F0695C01C0DA
S1131640605D8B2D5CDF11501111ECCF2A960FB623
S1131650F894DEBF0FBECDBFDF91CF911F910F91E4
S1131660FF90EF90DF90CF90BF90AF909F907F90CE
S11316706F905F904F9008958F929F92AF92BF9218
S1131680CF92DF92EF92FF920F93CF93C82F6A010C
S11316907B01CB01BA010AD24B015C010FEF9B0124
S11316A0AC016AE08C2F4ADF6EE28C2F28DFC50183
S11316B0B40128D29B01AC01C701B6012AD120E0B4
S11316C034E244E759E4B0D2F1D19B01AC016AE0C1
S11316D08C2F34DFCF910F91FF90EF90DF90CF905C
S11316E0BF90AF909F908F9008954F925F926F92AA
S11316F07F92AF92BF92CF92DF92EF92FF920F93BD
S11317001F93CF93DF93CDB7DEB71989EA88FB889F
S11317106E0184E1C80ED11CE9C0653209F0E1C054
S1131720C7010196D7011196EC9120ED2E0F2A30B6
S113173090F07C010FEF15C0802F880F982F990F20
S1131740990F890F8E0F00ED080FBFEFEB1AFB0AFC
S1131750D701EC9102C07C0100E080ED8E0F8A304D
S113176058F38E2F90E0FC01B597E435F10508F0AD
S1131770BAC0EA5BFF4FADC65601B2E0AB0EB11C76
S1131780F6016081812FBBDE6501ADC05601F2E038
S1131790AF0EB11CD601CD90DC90DD2034F4D19491
S11317A0C194D1086DE2812FAADE9601DD0C440BB1
S11317B0550B6AE0812FC2DE650195C05601B4E085
S11317C0AB0EB11CF601408051806280738077209B
S11317D05CF47094609450944094411C511C611CBE
S11317E0711C6DE2812F8BDEA30192016AE0812FCF
S11317F0A5DE650178C05601F2E0AF0EB11CD6013A
S11318002D913C9140E050E06AE0812F97DE650124
S11318106AC05601B4E0AB0EB11CF60120813181DF
S1131820428153816AE0812F89DE65015CC05601E3
S1131830F2E0AF0EB11CD6012D913C9140E050E096
S113184060E1812F7BDE65014EC05601B4E0AB0E32
S1131850B11CF601208131814281538160E1812FE5
S11318606DDE650140C05601F2E0AF0EB11CD60139
S11318702D913C910F3F09F400E140E050E062E01B
S1131880812F5CDE65012FC05601B4E0AB0EB11CA4
S1131890F60120813181428153810F3F09F400E137
S11318A062E0812F4BDE65011EC05601F4E0AF0EED
S11318B0B11CD6014D915D916D917C91812FDCDE3F
S11318C0650111C05601B2E0AB0EB11CF601608196
S11318D07181812F23DE650106C065E2812F0FDE51
S11318E002C0812F0CDEFFEFEF1AFF0AD7016C91C3
S11318F0611113CFDF91CF911F910F91FF90EF9062
S1131900DF90CF90BF90AF907F906F905F904F909B
S113191008955058BB27AA270ED048C139D130F0BA
S11319203ED120F031F49F3F11F41EF42EC10EF489
S1131930E095E7FB24C1E92F4AD180F3BA17620787
S113194073078407950718F071F49EF562C10EF4CD
S1131950E0950B2EBA2FA02D0B01B90190010C01BB
S1131960CA01A0011124FF27591B99F0593F50F4D3
S1131970503E68F11A16F040A22F232F342F44272B
S1131980585FF3CF469537952795A795F040539523
S1131990C9F77EF41F16BA0B620B730B840BBAF0F3
S11319A09150A1F0FF0FBB1F661F771F881FC2F75E
S11319B00EC0BA0F621F731F841F48F48795779572
S11319C06795B795F7959E3F08F0B3CF9395880F29
S11319D008F09927EE0F9795879508950CD0E6C0E7
S11319E0DED040F0D5D030F021F45F3F19F0C7C00D
S11319F0511110C1CAC0EBD098F39923C9F35523F0
S1131A00B1F3951B550BBB27AA27621773078407ED
S1131A1038F09F5F5F4F220F331F441FAA1FA9F3A3
S1131A2033D00E2E3AF0E0E830D091505040E69595
S1131A30001CCAF729D0FE2F27D0660F771F881FF6
S1131A40BB1F261737074807AB07B0E809F0BB0BE5
S1131A50802DBF01FF2793585F4F2AF09E3F510509
S1131A6068F08DC0D7C05F3FECF3983EDCF38695F9
S1131A7077956795B795F7959F5FC9F7880F911D7F
S1131A809695879597F90895E1E0660F771F881F6B
S1131A90BB1F621773078407BA0720F0621B730B1E
S1131AA0840BBA0BEE1F88F7E095089598D088F060
S1131AB09F5790F0B92F9927B751A0F0D1F0660F36
S1131AC0771F881F991F1AF0BA95C9F712C0B13051
S1131AD081F09FD0B1E008959CC0672F782F8827AC
S1131AE0B85F39F0B93FCCF3869577956795B39590
S1131AF0D9F73EF490958095709561957F4F8F4FFF
S1131B009F4F0895E89409C097FB3EF49095809503
S1131B10709561957F4F8F4F9F4F9923A9F0F92FAF
S1131B2096E9BB279395F695879577956795B7952D
S1131B30F111F8CFFAF4BB0F11F460FF1BC06F5F13
S1131B407F4F8F4F9F4F16C0882311F096E911C025
S1131B50772321F09EE8872F762F05C0662371F046
S1131B6096E8862F70E060E02AF09A95660F771F5A
S1131B70881FDAF7880F9695879597F9089597F94E
S1131B809F6780E870E060E008959FEF80EC08951F
S1131B9000240A9416161706180609060895002448
S1131BA00A9412161306140605060895092E0394C2
S1131BB0000C11F4882352F0BB0F40F4BF2B11F436
S1131BC060FF04C06F5F7F4F8F4F9F4F089557FD95
S1131BD09058440F551F59F05F3F71F04795880F97
S1131BE097FB991F61F09F3F79F08795089512162E
S1131BF013061406551FF2CF4695F1DF08C01616DA
S1131C0017061806991FF1CF86957105610508948A
S1131C100895E894BB2766277727CB0197F90895A1
S1131C2066D008F48FEF08950BD0C0CFB1DF28F051
S1131C30B6DF18F0952309F0A2CFA7CF1124EACF7D
S1131C40C6DFA0F3959FD1F3950F50E0551F629F17
S1131C50F001729FBB27F00DB11D639FAA27F00D01
S1131C60B11DAA1F649F6627B00DA11D661F829F28
S1131C702227B00DA11D621F739FB00DA11D621F0D
S1131C80839FA00D611D221F749F3327A00D611D2A
S1131C90231F849F600D211D822F762F6A2F11240C
S1131CA09F5750408AF0E1F088234AF0EE0FFF1F5F
S1131CB0BB1F661F771F881F91505040A9F79E3F96
S1131CC0510570F05CCFA6CF5F3FECF3983EDCF398
S1131CD0869577956795B795F795E7959F5FC1F7D3
S1131CE0FE2B880F911D9695879597F90895990F66
S1131CF00008550FAA0BE0E8FEEF16161706E807D2
S1131D00F907C0F012161306E407F50798F0621BF2
S1131D10730B840B950B39F40A2661F0232B242BC7
S1131D20252B21F408950A2609F4A140A6958FEFE6
S1131D30811D811D08952F923F924F925F926F9261
S1131D407F928F929F92AF92BF92CF92DF92EF9247
S1131D50FF920F931F93CF93DF93CDB7DEB76097B6
S1131D600FB6F894DEBF0FBECDBF7C011B016A0124
S1131D70FC0117821682838181FF2AC39E012F5F93
S1131D803F4F3901F7019381F10193FD859193FF51
S1131D9081911F01882309F417C3853239F493FD17
S1131DA0859193FF81911F01853231F4B70190E051
S1131DB0A0D456016501E6CF10E0512C912CFFE12F
S1131DC0F915D8F08B3279F038F4803279F0833217
S1131DD0A1F4F92DF0612EC08D3261F0803369F4E5
S1131DE0292D21602DC0392D3260932E892D8460D8
S1131DF0982E2AC0E92DE86015C097FC2DC020ED6F
S1131E00280F2A3088F496FE06C03AE0139F200D6E
S1131E101124122F19C08AE0589E200D1124522E2D
S1131E20E92DE0629E2E10C08E3231F496FCCCC2B5
S1131E30F92DF0649F2E08C08C3621F4292D2068DA
S1131E40922E02C0883641F4F10193FD859193FFEF
S1131E5081911F018111B3CF9BEB980F933020F434
S1131E60992D9061805E07C09BE9980F933008F02C
S1131E7059C1992D9F7E96FF16E09F73992E853642
S1131E8019F49064992E08C0863621F4392F3068ED
S1131E90932E02C01111115097FE07C01C3350F449
S1131EA044244394410E27E00BC0183038F027E057
S1131EB017E005C027E09CE3492E02C0212F412CE6
S1131EC0560184E0A80EB11CF60160817181828103
S1131ED09381042DA3011FD36C01F981FC87F0FFCA
S1131EE002C0F3FF06C091FC06C092FE06C000E2E9
S1131EF005C00DE203C00BE201C000E08C858C70CC
S1131F0019F0011143C280C297FE10C04C0CFC852D
S1131F10F4FF04C08A81813309F44A94141474F5DB
S1131F2028E0241578F588E0482E2CC096FC2AC0B9
S1131F30812F90E08C159D059CF03CEFC3163FEF7C
S1131F40D30674F0892D8068982E0AC0E2E0F0E090
S1131F50EC0FFD1FE10FF11D8081803319F4115046
S1131F601111F4CF97FE0EC044244394410E812FE7
S1131F7090E0C816D9062CF41C1904C044244394D8
S1131F8001C010E097FE06C01C141D0434F4C60101
S1131F90019605C085E090E002C081E090E0011167
S1131FA00196112331F0212F30E02F5F3F4F820F34
S1131FB0931F252D30E08217930714F4581A01C09B
S1131FC0512C892D897041F4552031F0B70180E2FC
S1131FD090E08FD35A94F8CF002321F0B701802FDB
S1131FE090E087D393FC08C0552031F0B70180E31B
S1131FF090E07FD35A94F8CF97FE4AC04601D7FEAB
S113200002C0812C912CC60188199909F301E80FAB
S1132010F91FFE87ED87960124193109388B2F8724
S1132020012F10E01195019511093FEF83169306D6
S113203021F4B7018EE290E05CD3C814D9044CF0CB
S11320408F8598898815990524F4ED85FE8581810D
S113205001C080E3F1E08F1A91082D853E852F5F42
S11320603F4F3E872D878016910624F0B70190E0FC
S113207040D3DBCFC814D90441F49A81963320F4B9
S1132080953319F43C8534FF81E3B70190E048C0EF
S11320908A81813319F09C859F7E9C87B70190E0EB
S11320A028D3111105C094FC16C085E690E015C034
S11320B0B7018EE290E01DD31E5F82E001E0080FBD
S11320C0F301E80FF11D8081B70190E012D3802F56
S11320D00113F4CFE8CF85E490E0B7010AD3D7FC2D
S11320E006C0C114D10441F4EC85E4FF05C0D194C9
S11320F0C194D1088DE201C08BE2B70190E0F9D21E
S113210080E32AE0C216D1042CF08F5FFAE0CF1AE4
S1132110D108F7CFB70190E0ECD2B701C601C09661
S1132120E8D249C1833631F0833779F0833509F039
S113213052C01FC0560132E0A30EB11CF6018081CB
S1132140898301E010E0630111C05601F2E0AF0E93
S1132150B11CF601C080D18096FE03C0612F70E0EF
S113216002C06FEF7FEFC601B9D28C01F92DFF7762
S113217013C0560122E0A20EB11CF601C080D1802A
S113218096FE03C0612F70E002C06FEF7FEFC601BF
S11321909AD28C01F92DF0689F2EF3FD18C0852D7D
S11321A090E00817190798F4B70180E290E0A1D2F3
S11321B05A94F5CFF60197FC859197FE81916F01B2
S11321C0B70190E096D251105A94015011090115AB
S11321D0110581F7F0C0843611F0893659F556019E
S11321E097FE09C024E0A20EB11CF6016081718142
S11321F0828193810AC0F2E0AF0EB11CF6016081C6
S11322007181072E000C880B990BF92DFF769F2EF8
S113221097FF09C090958095709561957F4F8F4F7A
S11322209F4FF0689F2E2AE030E0A301B1D2C82E60
S1132230C6183EC0092D853721F40F7E2AE030E010
S11322401DC0097F8F3691F018F4883559F0BCC051
S1132250803719F0883711F0B7C0006104FF09C056
S1132260046007C094FE08C0066006C028E030E0A1
S113227005C020E130E002C020E132E0560107FF52
S113228009C084E0A80EB11CF601608171818281CD
S1132290938108C0F2E0AF0EB11CF6016081718138
S11322A080E090E0A30174D2C82EC6180F77902E58
S11322B096FE0BC0092D0E7FC11650F494FE0AC081
S11322C092FC08C0092D0E7E05C0DC2C092D03C02C
S11322D0DC2C01C0D12E04FF0DC0FE01EC0DF11D5C
S11322E08081803311F4097E09C002FF06C0D394B3
S11322F0D39404C0802F867809F0D39403FD10C0D2
S113230000FF06C01C2DD51478F4150D1D190CC042
S1132310D51450F4B70180E290E0EBD1D394F8CF18
S1132320D51410F45D1801C0512C04FF0FC0B7017F
S113233080E390E0DED102FF16C001FD03C088E710
S113234090E002C088E590E0B7010CC0802F867849
S113235051F001FF02C08BE201C080E207FD8DE273
S1132360B70190E0C6D1C11630F4B70180E390E024
S1132370C0D11150F8CFCA94F301EC0DF11D808146
S1132380B70190E0B6D1C110F6CF15C0F4E0F51551
S113239050F584E0581A93FE1EC0011125C02C8507
S11323A023FF27C004E311E0392D3071932EF80187
S11323B08491811121C0552009F4FCCCB70180E23D
S11323C090E097D15A94F7CFF7018681978123C083
S11323D08FEF9FEF20C0B70180E290E08AD15A943A
S11323E05110F9CFDACF512CB701802F90E081D171
S11323F0D6CF08E311E0D8CF91108052B70190E016
S113240078D10F5F1F4FD3CF23E0251510F483E05D
S1132410C1CF512CC4CF60960FB6F894DEBF0FBE67
S1132420CDBFDF91CF911F910F91FF90EF90DF907F
S1132430CF90BF90AF909F908F907F906F905F9060
S11324404F903F902F900895DB018F939F934AD034
S1132450BF91AF91A29F800D911DA39F900DB29F3C
S1132460900D11240895AA1BBB1B51E107C0AA1F9C
S1132470BB1FA617B70710F0A61BB70B881F991F21
S11324805A95A9F780959095BC01CD010895A1E2D4
S11324901A2EAA1BBB1BFD010DC0AA1FBB1FEE1FDA
S11324A0FF1FA217B307E407F50720F0A21BB30B25
S11324B0E40BF50B661F771F881F991F1A9469F7A1
S11324C060957095809590959B01AC01BD01CF01FD
S11324D00895EE0FFF1F0024001C0BBE0790F69119
S11324E0E02D099409D0A59F900DB49F900DA49F51
S11324F0800D911D11240895A29FB001B39FC001C6
S1132500A39F700D811D1124911DB29F700D811D1B
S11325101124911D0895283008F027E03327DA01AB
S1132520990F311D87FD916000966105710539F49D
S113253032602E5F3D9330E32A95E1F708959F3F83
S113254030F080387105610509F03C5F3C5F3D93D4
S1132550913008F08068911DDF93CF931F930F9300
S1132560FF92EF92192F987F9695E92F969596955D
S1132570E90FFF27EA56FE4F99273327EE24FF245D
S1132580A701E70105900894079428F4360FE71E85
S1132590F81E491F511D660F771F881F991F069447
S11325A0A1F70590079428F4E70EF81E491F561F5B
S11325B0C11D770F881F991F661F0694A1F7059008
S11325C0079428F4F80E491F561FC71FD11D880F02
S11325D0991F661F771F0694A1F70590079420F4AE
S11325E0490F561FC71FD81F990F661F771F881FD3
S11325F00694A9F784911095177041F0D695C79564
S113260057954795F794E7941A95C1F7ECE3F1E0F1
S113261068941590159135916591959105907FE297
S11326207395E118F10A430B560BC90BD009C0F797
S1132630E10CF11E431F561FC91FD01D7EF47033D9
S113264011F48A95E6CFE894015030F0080F0AF4AB
S11326500027021708F4202F2395022F7A3328F03D
S113266079E37D932A95E9F710C07D932A9589F63D
S1132670069497956795379517951794E118F10A7D
S1132680430B560BC90BD00998F023957E91739593
S11326907A3308F070E37C932013B8F77E9170616D
S11326A07D9330F0839571E37D9370E32A95E1F790
S11326B01124EF90FF900F911F91CF91DF919927F3
S11326C087FD90950895FC010590615070400110BC
S11326D0D8F7809590958E0F9F1F0895FC01615047
S11326E0704001900110D8F7809590958E0F9F1F30
S11326F008950F931F93CF93DF93FB01238121FD53
S113270003C08FEF9FEF2CC022FF16C04681578174
S1132710248135814217530744F4A081B1819D017E
S11327202F5F3F4F318320838C93268137812F5F26
S11327303F4F3783268314C08B01EC01FB010084D7
S1132740F185E02D0995892BE1F6D80116968D9136
S11327509C911797019617969C938E931697CE018A
S1132760DF91CF911F910F910895CF93DF93CDB750
S1132770DEB7AE014B5F5F4FFA0161917191AF011A
S113278080913E0290913F02D6DADF91CF91089575
S1132790FA01AA27283051F1203181F1E8946F938E
S11327A06E7F6E5F7F4F8F4F9F4FAF4FB1E03ED034
S11327B0B4E03CD0670F781F891F9A1FA11D680FD2
S11327C0791F8A1F911DA11D6A0F711D811D911D05
S11327D0A11D20D009F468943F912AE0269F11247A
S11327E03019305D3193DEF6CF010895462F4770DE
S11327F0405D4193B3E00FD0C9F7F6CF462F4F7039
S1132800405D4A3318F0495D31FD4052419302D096
S1132810A9F7EACFB4E0A69597958795779567953C
S1132820BA95C9F700976105710508959B01AC013C
S11328300A2E06945795479537952795BA95C9F763
S1132840620F731F841F951FA01D0895F894FFCF76
S1132850F000400100000002000000007A080000BF
S11328600000DE09C6B1F9C038B4C4988DB563A5BB
S11328707CB68D0426B7F83DAFB7FA7A1BB8241E90
S11328806EB811EC9FB8423CBEB8B4F97F3F423CED
S1132890BEB811EC9FB8241E6EB8FA7A1BB8F83D86
S11328A0AFB78D0426B763A57CB6C4988DB5F9C0BF
S11328B038B4DE09C6B151525320636F6D706C6534
S11328C078004F682E20736568756E002564202596
S10728D0640A0D0085
S9030000FC
