S01A0000312E2041746D656761313238415F556172742E7372656365
S113000045C0000053C0000051C000004FC00000B4
S11300104DC000004BC0000049C0000047C00000B4
S113002045C0000043C0000041C000003FC00000C4
S11300303DC000003BC0000039C0000054C00000B7
S113004035C0000033C0000031C000002FC00000E4
S11300502DC000002BC0000029C0000027C00000F4
S113006025C0000023C0000021C000001FC0000004
S11300701DC000001BC0000019C0000017C0000014
S113008015C0000013C0000011C0000011241FBEE1
S1130090CFEFD0E1DEBFCDBF21E0A0E0B1E001C0F1
S11300A01D92A230B207E1F714D0CCC0A9CF8AB315
S11300B081608ABB8BB38E7F8BBB089588E083BF3E
S11300C083B7836083BF89EF81BF87B7826087BFAF
S11300D00895EDDFF3DF40E052EC61E070E080E092
S11300E077D07894FFCF1F920F920FB60F921124FE
S11300F02F938F939F93809100019091010101961A
S11301009093010180930001883E934040F09BB39B
S113011081E089278BBB10920101109200019F910D
S11301208F912F910F900FBE0F901F9018950F93E2
S11301301F93CF93C82FDB01CA0180569940A109B0
S1130140B109813A984BA140B10580F580E090E077
S1130150DC01841B950BA60BB70B880F991FAA1FF4
S1130160BB1F880F991FAA1FBB1F8C019D01000F85
S1130170111F221F331FD901C8019C5DAB40BF4F23
S1130180440F551F661F771F440F551F661F771FA7
S11301909A01AB01220F331F441F551F220F331F37
S11301A0441F551FBC01CD012BD002C027E630E00F
S11301B0C11104C029B93093900006C0C13021F4A4
S11301C02093990030939800CF911F910F91089537
S11301D0811109C088E18AB986E0809395001BB833
S11301E080E0A5CF0895813051F488E180939A008E
S11301F086E080939D0010929B0081E098CF089543
S1130200A1E21A2EAA1BBB1BFD010DC0AA1FBB1F16
S1130210EE1FFF1FA217B307E407F50720F0A21B88
S1130220B30BE40BF50B661F771F881F991F1A94F5
S113023069F760957095809590959B01AC01BD011F
S10B0240CF010895F894FFCFEB
S9030000FC
